{
  "contractName": "CoinFlip",
  "abi": [
    {
      "inputs": [],
      "payable": true,
      "stateMutability": "payable",
      "type": "constructor"
    },
    {
      "anonymous": false,
      "inputs": [
        {
          "indexed": false,
          "internalType": "address",
          "name": "user",
          "type": "address"
        },
        {
          "indexed": false,
          "internalType": "string",
          "name": "username",
          "type": "string"
        },
        {
          "indexed": false,
          "internalType": "uint256",
          "name": "betAmount",
          "type": "uint256"
        },
        {
          "indexed": false,
          "internalType": "string",
          "name": "outcome",
          "type": "string"
        },
        {
          "indexed": false,
          "internalType": "uint256",
          "name": "timestamp",
          "type": "uint256"
        }
      ],
      "name": "Bet",
      "type": "event"
    },
    {
      "anonymous": false,
      "inputs": [
        {
          "indexed": false,
          "internalType": "address",
          "name": "user",
          "type": "address"
        },
        {
          "indexed": false,
          "internalType": "uint256",
          "name": "amount",
          "type": "uint256"
        },
        {
          "indexed": false,
          "internalType": "uint256",
          "name": "balance",
          "type": "uint256"
        },
        {
          "indexed": false,
          "internalType": "string",
          "name": "username",
          "type": "string"
        }
      ],
      "name": "Deposit",
      "type": "event"
    },
    {
      "anonymous": false,
      "inputs": [
        {
          "indexed": false,
          "internalType": "uint256",
          "name": "value",
          "type": "uint256"
        }
      ],
      "name": "Fund",
      "type": "event"
    },
    {
      "anonymous": false,
      "inputs": [
        {
          "indexed": false,
          "internalType": "address",
          "name": "user",
          "type": "address"
        },
        {
          "indexed": false,
          "internalType": "uint256",
          "name": "withdrawAmount",
          "type": "uint256"
        },
        {
          "indexed": false,
          "internalType": "uint256",
          "name": "currentBalance",
          "type": "uint256"
        }
      ],
      "name": "Withdraw",
      "type": "event"
    },
    {
      "constant": true,
      "inputs": [],
      "name": "allPlayersBalance",
      "outputs": [
        {
          "internalType": "uint256",
          "name": "",
          "type": "uint256"
        }
      ],
      "payable": false,
      "stateMutability": "view",
      "type": "function"
    },
    {
      "constant": true,
      "inputs": [],
      "name": "balance",
      "outputs": [
        {
          "internalType": "uint256",
          "name": "",
          "type": "uint256"
        }
      ],
      "payable": false,
      "stateMutability": "view",
      "type": "function"
    },
    {
      "constant": true,
      "inputs": [],
      "name": "bet",
      "outputs": [
        {
          "internalType": "uint256",
          "name": "",
          "type": "uint256"
        }
      ],
      "payable": false,
      "stateMutability": "view",
      "type": "function"
    },
    {
      "constant": true,
      "inputs": [],
      "name": "owner",
      "outputs": [
        {
          "internalType": "address payable",
          "name": "",
          "type": "address"
        }
      ],
      "payable": false,
      "stateMutability": "view",
      "type": "function"
    },
    {
      "constant": true,
      "inputs": [
        {
          "internalType": "address",
          "name": "",
          "type": "address"
        }
      ],
      "name": "playerBalances",
      "outputs": [
        {
          "internalType": "uint256",
          "name": "",
          "type": "uint256"
        }
      ],
      "payable": false,
      "stateMutability": "view",
      "type": "function"
    },
    {
      "constant": true,
      "inputs": [
        {
          "internalType": "uint256",
          "name": "",
          "type": "uint256"
        }
      ],
      "name": "players",
      "outputs": [
        {
          "internalType": "address",
          "name": "",
          "type": "address"
        }
      ],
      "payable": false,
      "stateMutability": "view",
      "type": "function"
    },
    {
      "constant": true,
      "inputs": [],
      "name": "treasury",
      "outputs": [
        {
          "internalType": "uint256",
          "name": "",
          "type": "uint256"
        }
      ],
      "payable": false,
      "stateMutability": "view",
      "type": "function"
    },
    {
      "constant": true,
      "inputs": [
        {
          "internalType": "address",
          "name": "",
          "type": "address"
        }
      ],
      "name": "usernames",
      "outputs": [
        {
          "internalType": "string",
          "name": "",
          "type": "string"
        }
      ],
      "payable": false,
      "stateMutability": "view",
      "type": "function"
    },
    {
      "constant": false,
      "inputs": [],
      "name": "deposit",
      "outputs": [
        {
          "internalType": "uint256",
          "name": "",
          "type": "uint256"
        }
      ],
      "payable": true,
      "stateMutability": "payable",
      "type": "function"
    },
    {
      "constant": false,
      "inputs": [],
      "name": "fundTreasury",
      "outputs": [
        {
          "internalType": "uint256",
          "name": "",
          "type": "uint256"
        }
      ],
      "payable": true,
      "stateMutability": "payable",
      "type": "function"
    },
    {
      "constant": true,
      "inputs": [],
      "name": "playerBalance",
      "outputs": [
        {
          "internalType": "uint256",
          "name": "",
          "type": "uint256"
        }
      ],
      "payable": false,
      "stateMutability": "view",
      "type": "function"
    },
    {
      "constant": true,
      "inputs": [],
      "name": "getTreasuryBalance",
      "outputs": [
        {
          "internalType": "uint256",
          "name": "",
          "type": "uint256"
        }
      ],
      "payable": false,
      "stateMutability": "view",
      "type": "function"
    },
    {
      "constant": false,
      "inputs": [
        {
          "internalType": "string",
          "name": "_username",
          "type": "string"
        },
        {
          "internalType": "address",
          "name": "_user",
          "type": "address"
        }
      ],
      "name": "addUsername",
      "outputs": [],
      "payable": false,
      "stateMutability": "nonpayable",
      "type": "function"
    },
    {
      "constant": true,
      "inputs": [],
      "name": "getUsername",
      "outputs": [
        {
          "internalType": "string",
          "name": "",
          "type": "string"
        }
      ],
      "payable": false,
      "stateMutability": "view",
      "type": "function"
    },
    {
      "constant": true,
      "inputs": [],
      "name": "getBalance",
      "outputs": [
        {
          "internalType": "address",
          "name": "",
          "type": "address"
        },
        {
          "internalType": "uint256",
          "name": "",
          "type": "uint256"
        }
      ],
      "payable": false,
      "stateMutability": "view",
      "type": "function"
    },
    {
      "constant": true,
      "inputs": [],
      "name": "totalBalance",
      "outputs": [
        {
          "internalType": "address",
          "name": "",
          "type": "address"
        },
        {
          "internalType": "uint256",
          "name": "",
          "type": "uint256"
        }
      ],
      "payable": false,
      "stateMutability": "view",
      "type": "function"
    },
    {
      "constant": false,
      "inputs": [
        {
          "internalType": "uint256",
          "name": "_amount",
          "type": "uint256"
        }
      ],
      "name": "playerWithdraw",
      "outputs": [],
      "payable": false,
      "stateMutability": "nonpayable",
      "type": "function"
    },
    {
      "constant": false,
      "inputs": [
        {
          "internalType": "uint256",
          "name": "_amount",
          "type": "uint256"
        }
      ],
      "name": "withdraw",
      "outputs": [
        {
          "internalType": "uint256",
          "name": "",
          "type": "uint256"
        }
      ],
      "payable": false,
      "stateMutability": "nonpayable",
      "type": "function"
    },
    {
      "constant": true,
      "inputs": [],
      "name": "random",
      "outputs": [
        {
          "internalType": "uint256",
          "name": "",
          "type": "uint256"
        }
      ],
      "payable": false,
      "stateMutability": "view",
      "type": "function"
    },
    {
      "constant": false,
      "inputs": [
        {
          "internalType": "uint256",
          "name": "_amount",
          "type": "uint256"
        }
      ],
      "name": "coinFlip",
      "outputs": [
        {
          "internalType": "string",
          "name": "",
          "type": "string"
        }
      ],
      "payable": false,
      "stateMutability": "nonpayable",
      "type": "function"
    }
  ],
  "bytecode": "0x6080604052336000806101000a81548173ffffffffffffffffffffffffffffffffffffffff021916908373ffffffffffffffffffffffffffffffffffffffff16021790555060003490506100628160035461009060201b61179c1790919060201c565b6003819055503073ffffffffffffffffffffffffffffffffffffffff16316003541461008a57fe5b506100af565b6000808284019050838110156100a557600080fd5b8091505092915050565b611895806100be6000396000f3fe60806040526004361061011f5760003560e01c80637b38314c116100a0578063b69ef8a811610064578063b69ef8a814610654578063b9c186851461067f578063d0e30db01461069d578063ee91877c146106bb578063f71d96cb146107855761011f565b80637b38314c146104275780638da5cb5b1461048c5780639b5655dc146104e35780639fb38c521461050e578063ad7a672f146105f65761011f565b80635629365b116100e75780635629365b146102db5780635ec01e4d1461031657806361d027b314610341578063651f066a1461036c578063681f3e6d146103975761011f565b8063070b756e1461012457806311610c251461014f57806312065fe01461017a5780632e1a7d4d146101d8578063402e699d14610227575b600080fd5b34801561013057600080fd5b50610139610800565b6040518082815260200191505060405180910390f35b34801561015b57600080fd5b50610164610806565b6040518082815260200191505060405180910390f35b34801561018657600080fd5b5061018f61080c565b604051808373ffffffffffffffffffffffffffffffffffffffff1673ffffffffffffffffffffffffffffffffffffffff1681526020018281526020019250505060405180910390f35b3480156101e457600080fd5b50610211600480360360208110156101fb57600080fd5b810190808035906020019092919050505061081b565b6040518082815260200191505060405180910390f35b34801561023357600080fd5b506102606004803603602081101561024a57600080fd5b8101908080359060200190929190505050610912565b6040518080602001828103825283818151815260200191508051906020019080838360005b838110156102a0578082015181840152602081019050610285565b50505050905090810190601f1680156102cd5780820380516001836020036101000a031916815260200191505b509250505060405180910390f35b3480156102e757600080fd5b50610314600480360360208110156102fe57600080fd5b8101908080359060200190929190505050610dec565b005b34801561032257600080fd5b5061032b61100a565b6040518082815260200191505060405180910390f35b34801561034d57600080fd5b5061035661101c565b6040518082815260200191505060405180910390f35b34801561037857600080fd5b50610381611022565b6040518082815260200191505060405180910390f35b3480156103a357600080fd5b506103ac611069565b6040518080602001828103825283818151815260200191508051906020019080838360005b838110156103ec5780820151818401526020810190506103d1565b50505050905090810190601f1680156104195780820380516001836020036101000a031916815260200191505b509250505060405180910390f35b34801561043357600080fd5b506104766004803603602081101561044a57600080fd5b81019080803573ffffffffffffffffffffffffffffffffffffffff169060200190929190505050611148565b6040518082815260200191505060405180910390f35b34801561049857600080fd5b506104a1611160565b604051808273ffffffffffffffffffffffffffffffffffffffff1673ffffffffffffffffffffffffffffffffffffffff16815260200191505060405180910390f35b3480156104ef57600080fd5b506104f8611185565b6040518082815260200191505060405180910390f35b34801561051a57600080fd5b506105f46004803603604081101561053157600080fd5b810190808035906020019064010000000081111561054e57600080fd5b82018360208201111561056057600080fd5b8035906020019184600183028401116401000000008311171561058257600080fd5b91908080601f016020809104026020016040519081016040528093929190818152602001838380828437600081840152601f19601f820116905080830192505050505050509192919290803573ffffffffffffffffffffffffffffffffffffffff16906020019092919050505061118f565b005b34801561060257600080fd5b5061060b6111e7565b604051808373ffffffffffffffffffffffffffffffffffffffff1673ffffffffffffffffffffffffffffffffffffffff1681526020018281526020019250505060405180910390f35b34801561066057600080fd5b5061066961128a565b6040518082815260200191505060405180910390f35b610687611290565b6040518082815260200191505060405180910390f35b6106a5611377565b6040518082815260200191505060405180910390f35b3480156106c757600080fd5b5061070a600480360360208110156106de57600080fd5b81019080803573ffffffffffffffffffffffffffffffffffffffff169060200190929190505050611690565b6040518080602001828103825283818151815260200191508051906020019080838360005b8381101561074a57808201518184015260208101905061072f565b50505050905090810190601f1680156107775780820380516001836020036101000a031916815260200191505b509250505060405180910390f35b34801561079157600080fd5b506107be600480360360208110156107a857600080fd5b8101908080359060200190929190505050611740565b604051808273ffffffffffffffffffffffffffffffffffffffff1673ffffffffffffffffffffffffffffffffffffffff16815260200191505060405180910390f35b60045481565b60025481565b60008030600354915091509091565b60008060009054906101000a900473ffffffffffffffffffffffffffffffffffffffff1673ffffffffffffffffffffffffffffffffffffffff163373ffffffffffffffffffffffffffffffffffffffff161461087657600080fd5b60035482111561088557600080fd5b3373ffffffffffffffffffffffffffffffffffffffff166108fc839081150290604051600060405180830381858888f193505050501580156108cb573d6000803e3d6000fd5b506108e18260035461177c90919063ffffffff16565b6003819055503073ffffffffffffffffffffffffffffffffffffffff1631600454600354011461090d57fe5b919050565b6060600560003373ffffffffffffffffffffffffffffffffffffffff1673ffffffffffffffffffffffffffffffffffffffff1681526020019081526020016000205482111561096057600080fd5b60035482111561096f57600080fd5b6060600660003373ffffffffffffffffffffffffffffffffffffffff1673ffffffffffffffffffffffffffffffffffffffff1681526020019081526020016000208054600181600116156101000203166002900480601f016020809104026020016040519081016040528092919081815260200182805460018160011615610100020316600290048015610a445780601f10610a1957610100808354040283529160200191610a44565b820191906000526020600020905b815481529060010190602001808311610a2757829003601f168201915b505050505090506000610a5561100a565b905060606001821415610b6a576040518060400160405280600381526020017f77696e00000000000000000000000000000000000000000000000000000000008152509050610aec85600560003373ffffffffffffffffffffffffffffffffffffffff1673ffffffffffffffffffffffffffffffffffffffff1681526020019081526020016000205461179c90919063ffffffff16565b600560003373ffffffffffffffffffffffffffffffffffffffff1673ffffffffffffffffffffffffffffffffffffffff16815260200190815260200160002081905550610b448560045461179c90919063ffffffff16565b600481905550610b5f8560035461177c90919063ffffffff16565b600381905550610c6e565b6040518060400160405280600481526020017f6c6f7365000000000000000000000000000000000000000000000000000000008152509050610bf485600560003373ffffffffffffffffffffffffffffffffffffffff1673ffffffffffffffffffffffffffffffffffffffff1681526020019081526020016000205461177c90919063ffffffff16565b600560003373ffffffffffffffffffffffffffffffffffffffff1673ffffffffffffffffffffffffffffffffffffffff16815260200190815260200160002081905550610c4c8560045461177c90919063ffffffff16565b600481905550610c678560035461179c90919063ffffffff16565b6003819055505b3073ffffffffffffffffffffffffffffffffffffffff16316004546003540114610c9457fe5b7fc3d6e68967e84c459c5b0311a7cc9851fea079f3146fc9d6c84b776cb60e60763384878442604051808673ffffffffffffffffffffffffffffffffffffffff1673ffffffffffffffffffffffffffffffffffffffff1681526020018060200185815260200180602001848152602001838103835287818151815260200191508051906020019080838360005b83811015610d3c578082015181840152602081019050610d21565b50505050905090810190601f168015610d695780820380516001836020036101000a031916815260200191505b50838103825285818151815260200191508051906020019080838360005b83811015610da2578082015181840152602081019050610d87565b50505050905090810190601f168015610dcf5780820380516001836020036101000a031916815260200191505b5097505050505050505060405180910390a1809350505050919050565b80600560003373ffffffffffffffffffffffffffffffffffffffff1673ffffffffffffffffffffffffffffffffffffffff168152602001908152602001600020541015610e3857600080fd5b610e8a81600560003373ffffffffffffffffffffffffffffffffffffffff1673ffffffffffffffffffffffffffffffffffffffff1681526020019081526020016000205461177c90919063ffffffff16565b600560003373ffffffffffffffffffffffffffffffffffffffff1673ffffffffffffffffffffffffffffffffffffffff16815260200190815260200160002081905550610ee28160045461177c90919063ffffffff16565b6004819055503373ffffffffffffffffffffffffffffffffffffffff166108fc829081150290604051600060405180830381858888f19350505050158015610f2e573d6000803e3d6000fd5b503073ffffffffffffffffffffffffffffffffffffffff16316004546003540114610f5557fe5b7ff279e6a1f5e320cca91135676d9cb6e44ca8a08c0b88342bcdb1144f6511b5683382600560003373ffffffffffffffffffffffffffffffffffffffff1673ffffffffffffffffffffffffffffffffffffffff16815260200190815260200160002054604051808473ffffffffffffffffffffffffffffffffffffffff1673ffffffffffffffffffffffffffffffffffffffff168152602001838152602001828152602001935050505060405180910390a150565b60006002428161101657fe5b06905090565b60035481565b6000600560003373ffffffffffffffffffffffffffffffffffffffff1673ffffffffffffffffffffffffffffffffffffffff16815260200190815260200160002054905090565b6060600660003373ffffffffffffffffffffffffffffffffffffffff1673ffffffffffffffffffffffffffffffffffffffff1681526020019081526020016000208054600181600116156101000203166002900480601f01602080910402602001604051908101604052809291908181526020018280546001816001161561010002031660029004801561113e5780601f106111135761010080835404028352916020019161113e565b820191906000526020600020905b81548152906001019060200180831161112157829003601f168201915b5050505050905090565b60056020528060005260406000206000915090505481565b6000809054906101000a900473ffffffffffffffffffffffffffffffffffffffff1681565b6000600354905090565b81600660008373ffffffffffffffffffffffffffffffffffffffff1673ffffffffffffffffffffffffffffffffffffffff16815260200190815260200160002090805190602001906111e29291906117bb565b505050565b6000806000809054906101000a900473ffffffffffffffffffffffffffffffffffffffff1673ffffffffffffffffffffffffffffffffffffffff163373ffffffffffffffffffffffffffffffffffffffff161461124357600080fd5b3073ffffffffffffffffffffffffffffffffffffffff1631600454600354011461126957fe5b303073ffffffffffffffffffffffffffffffffffffffff1631915091509091565b60015481565b60008060009054906101000a900473ffffffffffffffffffffffffffffffffffffffff1673ffffffffffffffffffffffffffffffffffffffff163373ffffffffffffffffffffffffffffffffffffffff16146112eb57600080fd5b60003414156112f957600080fd5b61130e3460035461179c90919063ffffffff16565b6003819055507f27b2dc149fd3048bc27eadaaf660801a04305c72845da74066a17b72d6c5bb66346040518082815260200191505060405180910390a13073ffffffffffffffffffffffffffffffffffffffff1631600454600354011461137157fe5b34905090565b60006060600660003373ffffffffffffffffffffffffffffffffffffffff1673ffffffffffffffffffffffffffffffffffffffff1681526020019081526020016000208054600181600116156101000203166002900480601f01602080910402602001604051908101604052809291908181526020018280546001816001161561010002031660029004801561144e5780601f106114235761010080835404028352916020019161144e565b820191906000526020600020905b81548152906001019060200180831161143157829003601f168201915b505050505090506114a734600560003373ffffffffffffffffffffffffffffffffffffffff1673ffffffffffffffffffffffffffffffffffffffff1681526020019081526020016000205461179c90919063ffffffff16565b600560003373ffffffffffffffffffffffffffffffffffffffff1673ffffffffffffffffffffffffffffffffffffffff168152602001908152602001600020819055506114ff3460045461179c90919063ffffffff16565b6004819055503073ffffffffffffffffffffffffffffffffffffffff1631600454600354011461152b57fe5b7fc3e7b26244f37ad8e358393dbc82881ada73f132a6b54c7624e72a6792f797683334600560003373ffffffffffffffffffffffffffffffffffffffff1673ffffffffffffffffffffffffffffffffffffffff1681526020019081526020016000205484604051808573ffffffffffffffffffffffffffffffffffffffff1673ffffffffffffffffffffffffffffffffffffffff16815260200184815260200183815260200180602001828103825283818151815260200191508051906020019080838360005b8381101561160d5780820151818401526020810190506115f2565b50505050905090810190601f16801561163a5780820380516001836020036101000a031916815260200191505b509550505050505060405180910390a1600560003373ffffffffffffffffffffffffffffffffffffffff1673ffffffffffffffffffffffffffffffffffffffff1681526020019081526020016000205491505090565b60066020528060005260406000206000915090508054600181600116156101000203166002900480601f0160208091040260200160405190810160405280929190818152602001828054600181600116156101000203166002900480156117385780601f1061170d57610100808354040283529160200191611738565b820191906000526020600020905b81548152906001019060200180831161171b57829003601f168201915b505050505081565b6007818154811061174d57fe5b906000526020600020016000915054906101000a900473ffffffffffffffffffffffffffffffffffffffff1681565b60008282111561178b57600080fd5b600082840390508091505092915050565b6000808284019050838110156117b157600080fd5b8091505092915050565b828054600181600116156101000203166002900490600052602060002090601f016020900481019282601f106117fc57805160ff191683800117855561182a565b8280016001018555821561182a579182015b8281111561182957825182559160200191906001019061180e565b5b509050611837919061183b565b5090565b61185d91905b80821115611859576000816000905550600101611841565b5090565b9056fea265627a7a723158207d1a3b829e64198126068805681732f31a23b0ca34a213751dc2548f78558c3a64736f6c634300050c0032",
  "source": "pragma solidity ^0.5.12;\n\nimport \"./Ownable.sol\";\n\nimport \"node_modules/openzeppelin-solidity/contracts/math/SafeMath.sol\";\n\n// Contract executes the following:\n// Allows for ETH deposits\n// Allows for ETH withdrawals\n// Generates a random number 1 or 0 with 50/50 probability\n// Executes a simulated coin flip, adding 100% of wager to balance if won, or deducting 100% of wager if lost\n// emits Deposit, Withdrawal and Flip events\n\ncontract CoinFlip is Ownable {\n  using SafeMath for uint;\n  // Variables\n  uint public balance;\n  uint public bet;\n  uint public treasury;\n  uint public allPlayersBalance;\n\n  constructor() public payable {\n    uint initFund = msg.value;\n    treasury = treasury.add(initFund);\n    assert(treasury == address(this).balance);\n  }\n\n  // mappings\n  // Tracks the user balances stored in the contract\n  mapping (address => uint) public playerBalances;\n  mapping (address => string) public usernames;\n\n  // players array\n  address [] public players;\n\n  // events\n  event Deposit(address user, uint256 amount, uint256 balance, string username);\n  event Withdraw(address user, uint256 withdrawAmount, uint256 currentBalance);\n  event Bet(address user, string username, uint256 betAmount, string outcome, uint timestamp);\n  event Fund(uint value);\n  \n  // structs\n  struct _Bet {\n    address account;\n    string username;\n    uint256 wagerAmount;\n    string outcome;\n    uint256 timestamp;\n  }\n\n  struct _Player {\n    address account;\n    string username;\n  }\n  \n  // modifiers\n  modifier costs(uint cost) {\n    require(msg.value >= cost, \"The minimum bet is 0.001 Ether.\");\n    _;\n  }\n\n  // functions\n\n  // player deposits funds into contract for betting use\n  function deposit() public payable returns(uint){\n    string memory _username = usernames[msg.sender];\n    playerBalances[msg.sender] = playerBalances[msg.sender].add(msg.value);\n    allPlayersBalance = allPlayersBalance.add(msg.value);\n    assert(treasury + allPlayersBalance == address(this).balance);\n    emit Deposit(msg.sender, msg.value, playerBalances[msg.sender], _username);\n    return playerBalances[msg.sender];\n  }\n\n  // owner funds the treasury balance\n  function fundTreasury() public payable onlyOwner returns(uint) {\n    require(msg.value != 0);\n    treasury = treasury.add(msg.value);\n    emit Fund(msg.value);\n    assert(treasury + allPlayersBalance == address(this).balance);\n    return msg.value;\n  }\n\n  // querries the player's available balance in the contract\n  function playerBalance() public view returns (uint256){\n    return playerBalances[msg.sender];\n  }\n\n  function getTreasuryBalance() public view returns (uint256) {\n    return treasury;\n  }\n\n  function addUsername(string memory _username, address _user) public {\n    usernames[_user] = _username;\n  }\n\n  function getUsername() public view returns (string memory) {\n    return usernames[msg.sender];\n  }\n\n  // the total balance available in the contract treasury, these funds still belong to owner\n  function getBalance() public view returns (address, uint) {\n    return(address(this), treasury);\n  }\n\n  // the total funds in the contract, including all player funds + treasury funds\n  function totalBalance() public view onlyOwner returns (address, uint) {\n    assert(treasury + allPlayersBalance == address(this).balance);\n    return(address(this), address(this).balance);\n  }\n\n  // only player can withdraw their own funds, contract owner cannot withdraw or transfer these funds\n  function playerWithdraw(uint256 _amount) public {\n    require(playerBalances[msg.sender] >= _amount);\n    playerBalances[msg.sender] = playerBalances[msg.sender].sub(_amount);\n    allPlayersBalance = allPlayersBalance.sub(_amount);\n    msg.sender.transfer(_amount);\n    assert(treasury + allPlayersBalance == address(this).balance);\n    emit Withdraw(msg.sender, _amount, playerBalances[msg.sender]);\n  }\n\n  // only owner can withdraw the treasury funds\n  function withdraw(uint _amount) public onlyOwner returns(uint) {\n    require(_amount <= treasury);\n    msg.sender.transfer(_amount);\n    treasury = treasury.sub(_amount);\n    assert(treasury + allPlayersBalance == address(this).balance);\n  }\n  \n  function random() public view returns (uint) {\n    return now % 2;\n  }\n\n  function coinFlip(uint _amount) public returns(string memory) {\n    require(_amount <= playerBalances[msg.sender]);\n    require(_amount <= treasury);\n\n    string memory _username = usernames[msg.sender];\n    uint256 randomNum = random();\n    string memory outcome;\n\n    if(randomNum == 1){\n      outcome = \"win\";\n      playerBalances[msg.sender] = playerBalances[msg.sender].add(_amount);\n      allPlayersBalance = allPlayersBalance.add(_amount);\n      treasury = treasury.sub(_amount);\n\n    } else {\n      outcome = \"lose\";\n      playerBalances[msg.sender] = playerBalances[msg.sender].sub(_amount);\n      allPlayersBalance = allPlayersBalance.sub(_amount);\n      treasury = treasury.add(_amount);\n    }\n\n    assert(treasury + allPlayersBalance == address(this).balance);\n    emit Bet(msg.sender, _username, _amount, outcome, now);\n    return outcome;\n  }\n}\n",
  "sourcePath": "/Users/jonathancole/Documents/GitHub/coin-toss-dapp/src/contracts/CoinFlip.sol",
  "compiler": {
    "name": "solc",
    "version": "0.5.12+commit.7709ece9.Emscripten.clang"
  },
  "schemaVersion": "3.0.16",
  "updatedAt": "2021-04-23T21:40:50.578Z",
  "devdoc": {
    "methods": {}
  },
  "userdoc": {
    "methods": {}
  }
}