{
  "contractName": "CoinFlip",
  "abi": [
    {
      "inputs": [],
      "payable": true,
      "stateMutability": "payable",
      "type": "constructor"
    },
    {
      "anonymous": false,
      "inputs": [
        {
          "indexed": false,
          "internalType": "address",
          "name": "user",
          "type": "address"
        },
        {
          "indexed": false,
          "internalType": "uint256",
          "name": "betAmount",
          "type": "uint256"
        },
        {
          "indexed": false,
          "internalType": "string",
          "name": "outcome",
          "type": "string"
        },
        {
          "indexed": false,
          "internalType": "uint256",
          "name": "timestamp",
          "type": "uint256"
        }
      ],
      "name": "Bet",
      "type": "event"
    },
    {
      "anonymous": false,
      "inputs": [
        {
          "indexed": false,
          "internalType": "address",
          "name": "user",
          "type": "address"
        },
        {
          "indexed": false,
          "internalType": "uint256",
          "name": "amount",
          "type": "uint256"
        },
        {
          "indexed": false,
          "internalType": "uint256",
          "name": "balance",
          "type": "uint256"
        }
      ],
      "name": "Deposit",
      "type": "event"
    },
    {
      "anonymous": false,
      "inputs": [
        {
          "indexed": false,
          "internalType": "uint256",
          "name": "value",
          "type": "uint256"
        }
      ],
      "name": "Fund",
      "type": "event"
    },
    {
      "anonymous": false,
      "inputs": [
        {
          "indexed": false,
          "internalType": "address",
          "name": "user",
          "type": "address"
        },
        {
          "indexed": false,
          "internalType": "uint256",
          "name": "withdrawAmount",
          "type": "uint256"
        },
        {
          "indexed": false,
          "internalType": "uint256",
          "name": "currentBalance",
          "type": "uint256"
        }
      ],
      "name": "Withdraw",
      "type": "event"
    },
    {
      "constant": true,
      "inputs": [],
      "name": "allPlayersBalance",
      "outputs": [
        {
          "internalType": "uint256",
          "name": "",
          "type": "uint256"
        }
      ],
      "payable": false,
      "stateMutability": "view",
      "type": "function"
    },
    {
      "constant": true,
      "inputs": [],
      "name": "balance",
      "outputs": [
        {
          "internalType": "uint256",
          "name": "",
          "type": "uint256"
        }
      ],
      "payable": false,
      "stateMutability": "view",
      "type": "function"
    },
    {
      "constant": true,
      "inputs": [],
      "name": "bet",
      "outputs": [
        {
          "internalType": "uint256",
          "name": "",
          "type": "uint256"
        }
      ],
      "payable": false,
      "stateMutability": "view",
      "type": "function"
    },
    {
      "constant": true,
      "inputs": [],
      "name": "owner",
      "outputs": [
        {
          "internalType": "address payable",
          "name": "",
          "type": "address"
        }
      ],
      "payable": false,
      "stateMutability": "view",
      "type": "function"
    },
    {
      "constant": true,
      "inputs": [
        {
          "internalType": "uint256",
          "name": "",
          "type": "uint256"
        }
      ],
      "name": "players",
      "outputs": [
        {
          "internalType": "address payable",
          "name": "",
          "type": "address"
        }
      ],
      "payable": false,
      "stateMutability": "view",
      "type": "function"
    },
    {
      "constant": true,
      "inputs": [],
      "name": "treasury",
      "outputs": [
        {
          "internalType": "uint256",
          "name": "",
          "type": "uint256"
        }
      ],
      "payable": false,
      "stateMutability": "view",
      "type": "function"
    },
    {
      "constant": false,
      "inputs": [],
      "name": "deposit",
      "outputs": [
        {
          "internalType": "uint256",
          "name": "",
          "type": "uint256"
        }
      ],
      "payable": true,
      "stateMutability": "payable",
      "type": "function"
    },
    {
      "constant": false,
      "inputs": [],
      "name": "fundTreasury",
      "outputs": [
        {
          "internalType": "uint256",
          "name": "",
          "type": "uint256"
        }
      ],
      "payable": true,
      "stateMutability": "payable",
      "type": "function"
    },
    {
      "constant": true,
      "inputs": [],
      "name": "playerBalance",
      "outputs": [
        {
          "internalType": "uint256",
          "name": "",
          "type": "uint256"
        }
      ],
      "payable": false,
      "stateMutability": "view",
      "type": "function"
    },
    {
      "constant": true,
      "inputs": [],
      "name": "getBalance",
      "outputs": [
        {
          "internalType": "address",
          "name": "",
          "type": "address"
        },
        {
          "internalType": "uint256",
          "name": "",
          "type": "uint256"
        }
      ],
      "payable": false,
      "stateMutability": "view",
      "type": "function"
    },
    {
      "constant": true,
      "inputs": [],
      "name": "totalBalance",
      "outputs": [
        {
          "internalType": "address",
          "name": "",
          "type": "address"
        },
        {
          "internalType": "uint256",
          "name": "",
          "type": "uint256"
        }
      ],
      "payable": false,
      "stateMutability": "view",
      "type": "function"
    },
    {
      "constant": false,
      "inputs": [
        {
          "internalType": "uint256",
          "name": "_amount",
          "type": "uint256"
        }
      ],
      "name": "playerWithdraw",
      "outputs": [],
      "payable": true,
      "stateMutability": "payable",
      "type": "function"
    },
    {
      "constant": false,
      "inputs": [
        {
          "internalType": "uint256",
          "name": "_amount",
          "type": "uint256"
        }
      ],
      "name": "withdraw",
      "outputs": [
        {
          "internalType": "uint256",
          "name": "",
          "type": "uint256"
        }
      ],
      "payable": false,
      "stateMutability": "nonpayable",
      "type": "function"
    },
    {
      "constant": true,
      "inputs": [],
      "name": "random",
      "outputs": [
        {
          "internalType": "uint256",
          "name": "",
          "type": "uint256"
        }
      ],
      "payable": false,
      "stateMutability": "view",
      "type": "function"
    },
    {
      "constant": false,
      "inputs": [
        {
          "internalType": "uint256",
          "name": "_amount",
          "type": "uint256"
        }
      ],
      "name": "coinFlip",
      "outputs": [
        {
          "internalType": "string",
          "name": "",
          "type": "string"
        }
      ],
      "payable": false,
      "stateMutability": "nonpayable",
      "type": "function"
    }
  ],
  "bytecode": "0x6080604052336000806101000a81548173ffffffffffffffffffffffffffffffffffffffff021916908373ffffffffffffffffffffffffffffffffffffffff16021790555060003490506100628160035461009060201b610fe91790919060201c565b6003819055503073ffffffffffffffffffffffffffffffffffffffff16316003541461008a57fe5b506100af565b6000808284019050838110156100a557600080fd5b8091505092915050565b61103d806100be6000396000f3fe6080604052600436106100e85760003560e01c806361d027b31161008a578063b69ef8a811610059578063b69ef8a814610408578063b9c1868514610433578063d0e30db014610451578063f71d96cb1461046f576100e8565b806361d027b3146102fd578063651f066a146103285780638da5cb5b14610353578063ad7a672f146103aa576100e8565b80632e1a7d4d116100c65780632e1a7d4d146101a1578063402e699d146101f05780635629365b146102a45780635ec01e4d146102d2576100e8565b8063070b756e146100ed57806311610c251461011857806312065fe014610143575b600080fd5b3480156100f957600080fd5b506101026104ea565b6040518082815260200191505060405180910390f35b34801561012457600080fd5b5061012d6104f0565b6040518082815260200191505060405180910390f35b34801561014f57600080fd5b506101586104f6565b604051808373ffffffffffffffffffffffffffffffffffffffff1673ffffffffffffffffffffffffffffffffffffffff1681526020018281526020019250505060405180910390f35b3480156101ad57600080fd5b506101da600480360360208110156101c457600080fd5b8101908080359060200190929190505050610505565b6040518082815260200191505060405180910390f35b3480156101fc57600080fd5b506102296004803603602081101561021357600080fd5b81019080803590602001909291905050506105fc565b6040518080602001828103825283818151815260200191508051906020019080838360005b8381101561026957808201518184015260208101905061024e565b50505050905090810190601f1680156102965780820380516001836020036101000a031916815260200191505b509250505060405180910390f35b6102d0600480360360208110156102ba57600080fd5b810190808035906020019092919050505061098c565b005b3480156102de57600080fd5b506102e7610baa565b6040518082815260200191505060405180910390f35b34801561030957600080fd5b50610312610bbc565b6040518082815260200191505060405180910390f35b34801561033457600080fd5b5061033d610bc2565b6040518082815260200191505060405180910390f35b34801561035f57600080fd5b50610368610c09565b604051808273ffffffffffffffffffffffffffffffffffffffff1673ffffffffffffffffffffffffffffffffffffffff16815260200191505060405180910390f35b3480156103b657600080fd5b506103bf610c2e565b604051808373ffffffffffffffffffffffffffffffffffffffff1673ffffffffffffffffffffffffffffffffffffffff1681526020018281526020019250505060405180910390f35b34801561041457600080fd5b5061041d610cd1565b6040518082815260200191505060405180910390f35b61043b610cd7565b6040518082815260200191505060405180910390f35b610459610dbe565b6040518082815260200191505060405180910390f35b34801561047b57600080fd5b506104a86004803603602081101561049257600080fd5b8101908080359060200190929190505050610f8d565b604051808273ffffffffffffffffffffffffffffffffffffffff1673ffffffffffffffffffffffffffffffffffffffff16815260200191505060405180910390f35b60045481565b60025481565b60008030600354915091509091565b60008060009054906101000a900473ffffffffffffffffffffffffffffffffffffffff1673ffffffffffffffffffffffffffffffffffffffff163373ffffffffffffffffffffffffffffffffffffffff161461056057600080fd5b60035482111561056f57600080fd5b3373ffffffffffffffffffffffffffffffffffffffff166108fc839081150290604051600060405180830381858888f193505050501580156105b5573d6000803e3d6000fd5b506105cb82600354610fc990919063ffffffff16565b6003819055503073ffffffffffffffffffffffffffffffffffffffff163160045460035401146105f757fe5b919050565b6060600560003373ffffffffffffffffffffffffffffffffffffffff1673ffffffffffffffffffffffffffffffffffffffff1681526020019081526020016000205482111561064a57600080fd5b60035482111561065957600080fd5b6000610663610baa565b905060606001821415610778576040518060400160405280600381526020017f77696e000000000000000000000000000000000000000000000000000000000081525090506106fa84600560003373ffffffffffffffffffffffffffffffffffffffff1673ffffffffffffffffffffffffffffffffffffffff16815260200190815260200160002054610fe990919063ffffffff16565b600560003373ffffffffffffffffffffffffffffffffffffffff1673ffffffffffffffffffffffffffffffffffffffff1681526020019081526020016000208190555061075284600454610fe990919063ffffffff16565b60048190555061076d84600354610fc990919063ffffffff16565b60038190555061087c565b6040518060400160405280600481526020017f6c6f736500000000000000000000000000000000000000000000000000000000815250905061080284600560003373ffffffffffffffffffffffffffffffffffffffff1673ffffffffffffffffffffffffffffffffffffffff16815260200190815260200160002054610fc990919063ffffffff16565b600560003373ffffffffffffffffffffffffffffffffffffffff1673ffffffffffffffffffffffffffffffffffffffff1681526020019081526020016000208190555061085a84600454610fc990919063ffffffff16565b60048190555061087584600354610fe990919063ffffffff16565b6003819055505b3073ffffffffffffffffffffffffffffffffffffffff163160045460035401146108a257fe5b7f0584e71315774e9645c1620fcd694d5e0fca204a253684c39b21b0bf9008158733858342604051808573ffffffffffffffffffffffffffffffffffffffff1673ffffffffffffffffffffffffffffffffffffffff16815260200184815260200180602001838152602001828103825284818151815260200191508051906020019080838360005b8381101561094557808201518184015260208101905061092a565b50505050905090810190601f1680156109725780820380516001836020036101000a031916815260200191505b509550505050505060405180910390a18092505050919050565b80600560003373ffffffffffffffffffffffffffffffffffffffff1673ffffffffffffffffffffffffffffffffffffffff1681526020019081526020016000205410156109d857600080fd5b610a2a81600560003373ffffffffffffffffffffffffffffffffffffffff1673ffffffffffffffffffffffffffffffffffffffff16815260200190815260200160002054610fc990919063ffffffff16565b600560003373ffffffffffffffffffffffffffffffffffffffff1673ffffffffffffffffffffffffffffffffffffffff16815260200190815260200160002081905550610a8281600454610fc990919063ffffffff16565b6004819055503373ffffffffffffffffffffffffffffffffffffffff166108fc829081150290604051600060405180830381858888f19350505050158015610ace573d6000803e3d6000fd5b503073ffffffffffffffffffffffffffffffffffffffff16316004546003540114610af557fe5b7ff279e6a1f5e320cca91135676d9cb6e44ca8a08c0b88342bcdb1144f6511b5683382600560003373ffffffffffffffffffffffffffffffffffffffff1673ffffffffffffffffffffffffffffffffffffffff16815260200190815260200160002054604051808473ffffffffffffffffffffffffffffffffffffffff1673ffffffffffffffffffffffffffffffffffffffff168152602001838152602001828152602001935050505060405180910390a150565b600060024281610bb657fe5b06905090565b60035481565b6000600560003373ffffffffffffffffffffffffffffffffffffffff1673ffffffffffffffffffffffffffffffffffffffff16815260200190815260200160002054905090565b6000809054906101000a900473ffffffffffffffffffffffffffffffffffffffff1681565b6000806000809054906101000a900473ffffffffffffffffffffffffffffffffffffffff1673ffffffffffffffffffffffffffffffffffffffff163373ffffffffffffffffffffffffffffffffffffffff1614610c8a57600080fd5b3073ffffffffffffffffffffffffffffffffffffffff16316004546003540114610cb057fe5b303073ffffffffffffffffffffffffffffffffffffffff1631915091509091565b60015481565b60008060009054906101000a900473ffffffffffffffffffffffffffffffffffffffff1673ffffffffffffffffffffffffffffffffffffffff163373ffffffffffffffffffffffffffffffffffffffff1614610d3257600080fd5b6000341415610d4057600080fd5b610d5534600354610fe990919063ffffffff16565b6003819055507f27b2dc149fd3048bc27eadaaf660801a04305c72845da74066a17b72d6c5bb66346040518082815260200191505060405180910390a13073ffffffffffffffffffffffffffffffffffffffff16316004546003540114610db857fe5b34905090565b6000610e1234600560003373ffffffffffffffffffffffffffffffffffffffff1673ffffffffffffffffffffffffffffffffffffffff16815260200190815260200160002054610fe990919063ffffffff16565b600560003373ffffffffffffffffffffffffffffffffffffffff1673ffffffffffffffffffffffffffffffffffffffff16815260200190815260200160002081905550610e6a34600454610fe990919063ffffffff16565b6004819055503073ffffffffffffffffffffffffffffffffffffffff16316004546003540114610e9657fe5b7f90890809c654f11d6e72a28fa60149770a0d11ec6c92319d6ceb2bb0a4ea1a153334600560003373ffffffffffffffffffffffffffffffffffffffff1673ffffffffffffffffffffffffffffffffffffffff16815260200190815260200160002054604051808473ffffffffffffffffffffffffffffffffffffffff1673ffffffffffffffffffffffffffffffffffffffff168152602001838152602001828152602001935050505060405180910390a1600560003373ffffffffffffffffffffffffffffffffffffffff1673ffffffffffffffffffffffffffffffffffffffff16815260200190815260200160002054905090565b60068181548110610f9a57fe5b906000526020600020016000915054906101000a900473ffffffffffffffffffffffffffffffffffffffff1681565b600082821115610fd857600080fd5b600082840390508091505092915050565b600080828401905083811015610ffe57600080fd5b809150509291505056fea265627a7a7231582023495215b49e5a795dd70cab3a6cc7fcb36788cdd7385e56c410467d18ed258b64736f6c634300050c0032",
  "source": "pragma solidity ^0.5.12;\n\nimport \"./Ownable.sol\";\n\nimport \"node_modules/openzeppelin-solidity/contracts/math/SafeMath.sol\";\n\n// Contract executes the following:\n// Allows for ETH deposits\n// Allows for ETH withdrawals\n// Generates a random number 1 or 0 with 50/50 probability\n// Executes a simulated coin flip, adding 100% of wager to balance if won, or deducting 100% of wager if lost\n// emits Deposit, Withdrawal and Flip events\n\ncontract CoinFlip is Ownable {\n  using SafeMath for uint;\n  // Variables\n  uint public balance;\n  uint public bet;\n  uint public treasury;\n  uint public allPlayersBalance;\n\n  constructor() public payable {\n    uint initFund = msg.value;\n    treasury = treasury.add(initFund);\n    assert(treasury == address(this).balance);\n  }\n\n  // mappings\n  // Tracks the user balances stored in the contract\n  mapping (address => uint256) private playerBalances;\n\n  // players array\n  address payable[] public players;\n\n  // events\n  event Deposit(address user, uint256 amount, uint256 balance);\n  event Withdraw(address user, uint256 withdrawAmount, uint256 currentBalance);\n  event Bet(address user, uint256 betAmount, string outcome, uint timestamp);\n  event Fund(uint value);\n  // structs\n  \n  // modifiers\n  modifier costs(uint cost) {\n    require(msg.value >= cost, \"The minimum bet is 0.001 Ether.\");\n    _;\n  }\n\n  // functions\n\n  // player deposits funds into contract for betting use\n  function deposit() public payable returns(uint){        \n      playerBalances[msg.sender] = playerBalances[msg.sender].add(msg.value);\n      allPlayersBalance = allPlayersBalance.add(msg.value);\n      assert(treasury + allPlayersBalance == address(this).balance);\n      emit Deposit(msg.sender, msg.value, playerBalances[msg.sender]);\n      return playerBalances[msg.sender];\n  }\n\n  // owner funds the treasury balance\n  function fundTreasury() public payable onlyOwner returns(uint) {\n    require(msg.value != 0);\n    treasury = treasury.add(msg.value);\n    emit Fund(msg.value);\n    assert(treasury + allPlayersBalance == address(this).balance);\n    return msg.value;\n  }\n\n  // querries the player's available balance in the contract\n  function playerBalance() public view returns (uint256){\n    return playerBalances[msg.sender];\n  }\n\n  // the total balance available in the contract treasury, these funds still belong to owner\n  function getBalance() public view returns (address, uint) {\n    return(address(this), treasury);\n  }\n\n  // the total funds in the contract, including all player funds + treasury funds\n  function totalBalance() public view onlyOwner returns (address, uint) {\n    assert(treasury + allPlayersBalance == address(this).balance);\n    return(address(this), address(this).balance);\n  }\n\n  // only player can withdraw their own funds, contract owner cannot withdraw or transfer these funds\n  function playerWithdraw(uint256 _amount) public payable {\n    require(playerBalances[msg.sender] >= _amount);\n    playerBalances[msg.sender] = playerBalances[msg.sender].sub(_amount);\n    allPlayersBalance = allPlayersBalance.sub(_amount);\n    msg.sender.transfer(_amount);\n    assert(treasury + allPlayersBalance == address(this).balance);\n    emit Withdraw(msg.sender, _amount, playerBalances[msg.sender]);\n  }\n\n  // only owner can withdraw the treasury funds\n  function withdraw(uint _amount) public onlyOwner returns(uint) {\n    require(_amount <= treasury);\n    msg.sender.transfer(_amount);\n    treasury = treasury.sub(_amount);\n    assert(treasury + allPlayersBalance == address(this).balance);\n  }\n  \n  function random() public view returns (uint) {\n    return now % 2;\n  }\n\n  function coinFlip(uint _amount) public returns(string memory) {\n    require(_amount <= playerBalances[msg.sender]);\n    require(_amount <= treasury);\n\n    uint256 randomNum = random();\n    string memory outcome;\n    if(randomNum == 1){\n      outcome = \"win\";\n      playerBalances[msg.sender] = playerBalances[msg.sender].add(_amount);\n      allPlayersBalance = allPlayersBalance.add(_amount);\n      treasury = treasury.sub(_amount);\n\n    } else {\n      outcome = \"lose\";\n      playerBalances[msg.sender] = playerBalances[msg.sender].sub(_amount);\n      allPlayersBalance = allPlayersBalance.sub(_amount);\n      treasury = treasury.add(_amount);\n    }\n\n    assert(treasury + allPlayersBalance == address(this).balance);\n    emit Bet(msg.sender, _amount, outcome, now);\n    return outcome;\n  }\n}\n",
  "sourcePath": "/Users/jonathancole/Documents/GitHub/coin-toss-dapp/src/contracts/CoinFlip.sol",
  "compiler": {
    "name": "solc",
    "version": "0.5.12+commit.7709ece9.Emscripten.clang"
  },
  "schemaVersion": "3.0.16",
  "updatedAt": "2021-04-15T21:14:35.493Z",
  "devdoc": {
    "methods": {}
  },
  "userdoc": {
    "methods": {}
  }
}