{
  "contractName": "CoinFlip",
  "abi": [
    {
      "anonymous": false,
      "inputs": [
        {
          "indexed": false,
          "internalType": "address",
          "name": "user",
          "type": "address"
        },
        {
          "indexed": false,
          "internalType": "uint256",
          "name": "amount",
          "type": "uint256"
        },
        {
          "indexed": false,
          "internalType": "uint256",
          "name": "balance",
          "type": "uint256"
        }
      ],
      "name": "Deposit",
      "type": "event"
    },
    {
      "anonymous": false,
      "inputs": [
        {
          "indexed": false,
          "internalType": "address",
          "name": "user",
          "type": "address"
        },
        {
          "indexed": false,
          "internalType": "uint256",
          "name": "bet",
          "type": "uint256"
        },
        {
          "indexed": false,
          "internalType": "bool",
          "name": "outcome",
          "type": "bool"
        }
      ],
      "name": "Flip",
      "type": "event"
    },
    {
      "anonymous": false,
      "inputs": [
        {
          "indexed": false,
          "internalType": "address",
          "name": "user",
          "type": "address"
        },
        {
          "indexed": false,
          "internalType": "uint256",
          "name": "amount",
          "type": "uint256"
        },
        {
          "indexed": false,
          "internalType": "uint256",
          "name": "balance",
          "type": "uint256"
        }
      ],
      "name": "Withdraw",
      "type": "event"
    },
    {
      "constant": true,
      "inputs": [
        {
          "internalType": "address",
          "name": "",
          "type": "address"
        }
      ],
      "name": "balances",
      "outputs": [
        {
          "internalType": "uint256",
          "name": "",
          "type": "uint256"
        }
      ],
      "payable": false,
      "stateMutability": "view",
      "type": "function"
    },
    {
      "constant": false,
      "inputs": [],
      "name": "deposit",
      "outputs": [],
      "payable": true,
      "stateMutability": "payable",
      "type": "function"
    },
    {
      "constant": true,
      "inputs": [
        {
          "internalType": "address",
          "name": "_user",
          "type": "address"
        }
      ],
      "name": "balanceOf",
      "outputs": [
        {
          "internalType": "uint256",
          "name": "",
          "type": "uint256"
        }
      ],
      "payable": false,
      "stateMutability": "view",
      "type": "function"
    },
    {
      "constant": false,
      "inputs": [
        {
          "internalType": "uint256",
          "name": "_amount",
          "type": "uint256"
        }
      ],
      "name": "withdraw",
      "outputs": [],
      "payable": true,
      "stateMutability": "payable",
      "type": "function"
    },
    {
      "constant": true,
      "inputs": [],
      "name": "random",
      "outputs": [
        {
          "internalType": "uint256",
          "name": "",
          "type": "uint256"
        }
      ],
      "payable": false,
      "stateMutability": "view",
      "type": "function"
    },
    {
      "constant": false,
      "inputs": [
        {
          "internalType": "uint256",
          "name": "_amount",
          "type": "uint256"
        }
      ],
      "name": "coinFlip",
      "outputs": [],
      "payable": false,
      "stateMutability": "nonpayable",
      "type": "function"
    }
  ],
  "bytecode": "0x608060405234801561001057600080fd5b506107df806100206000396000f3fe6080604052600436106100555760003560e01c806327e235e31461005a5780632e1a7d4d146100bf578063402e699d146100ed5780635ec01e4d1461012857806370a0823114610153578063d0e30db0146101b8575b600080fd5b34801561006657600080fd5b506100a96004803603602081101561007d57600080fd5b81019080803573ffffffffffffffffffffffffffffffffffffffff1690602001909291905050506101c2565b6040518082815260200191505060405180910390f35b6100eb600480360360208110156100d557600080fd5b81019080803590602001909291905050506101da565b005b3480156100f957600080fd5b506101266004803603602081101561011057600080fd5b81019080803590602001909291905050506103b3565b005b34801561013457600080fd5b5061013d6105cb565b6040518082815260200191505060405180910390f35b34801561015f57600080fd5b506101a26004803603602081101561017657600080fd5b81019080803573ffffffffffffffffffffffffffffffffffffffff1690602001909291905050506105dd565b6040518082815260200191505060405180910390f35b6101c0610625565b005b60006020528060005260406000206000915090505481565b806000803373ffffffffffffffffffffffffffffffffffffffff1673ffffffffffffffffffffffffffffffffffffffff16815260200190815260200160002054101561022557600080fd5b610276816000803373ffffffffffffffffffffffffffffffffffffffff1673ffffffffffffffffffffffffffffffffffffffff1681526020019081526020016000205461076b90919063ffffffff16565b6000803373ffffffffffffffffffffffffffffffffffffffff1673ffffffffffffffffffffffffffffffffffffffff168152602001908152602001600020819055503373ffffffffffffffffffffffffffffffffffffffff166108fc829081150290604051600060405180830381858888f193505050501580156102fe573d6000803e3d6000fd5b507ff279e6a1f5e320cca91135676d9cb6e44ca8a08c0b88342bcdb1144f6511b56833826000803373ffffffffffffffffffffffffffffffffffffffff1673ffffffffffffffffffffffffffffffffffffffff16815260200190815260200160002054604051808473ffffffffffffffffffffffffffffffffffffffff1673ffffffffffffffffffffffffffffffffffffffff168152602001838152602001828152602001935050505060405180910390a150565b6000803373ffffffffffffffffffffffffffffffffffffffff1673ffffffffffffffffffffffffffffffffffffffff168152602001908152602001600020548110156103fe57600080fd5b60006104086105cb565b90506000809050600182141561041d57600190505b80156104bb57610474836000803373ffffffffffffffffffffffffffffffffffffffff1673ffffffffffffffffffffffffffffffffffffffff1681526020019081526020016000205461078b90919063ffffffff16565b6000803373ffffffffffffffffffffffffffffffffffffffff1673ffffffffffffffffffffffffffffffffffffffff1681526020019081526020016000208190555061054f565b61050c836000803373ffffffffffffffffffffffffffffffffffffffff1673ffffffffffffffffffffffffffffffffffffffff1681526020019081526020016000205461076b90919063ffffffff16565b6000803373ffffffffffffffffffffffffffffffffffffffff1673ffffffffffffffffffffffffffffffffffffffff168152602001908152602001600020819055505b7f2f89fdbddbef19c20d9bf5d99f720a0882eeb0fa3aff03985472514566cb4327338483604051808473ffffffffffffffffffffffffffffffffffffffff1673ffffffffffffffffffffffffffffffffffffffff16815260200183815260200182151515158152602001935050505060405180910390a1505050565b6000600242816105d757fe5b06905090565b60008060008373ffffffffffffffffffffffffffffffffffffffff1673ffffffffffffffffffffffffffffffffffffffff168152602001908152602001600020549050919050565b610676346000803373ffffffffffffffffffffffffffffffffffffffff1673ffffffffffffffffffffffffffffffffffffffff1681526020019081526020016000205461078b90919063ffffffff16565b6000803373ffffffffffffffffffffffffffffffffffffffff1673ffffffffffffffffffffffffffffffffffffffff168152602001908152602001600020819055507f90890809c654f11d6e72a28fa60149770a0d11ec6c92319d6ceb2bb0a4ea1a1533346000803373ffffffffffffffffffffffffffffffffffffffff1673ffffffffffffffffffffffffffffffffffffffff16815260200190815260200160002054604051808473ffffffffffffffffffffffffffffffffffffffff1673ffffffffffffffffffffffffffffffffffffffff168152602001838152602001828152602001935050505060405180910390a1565b60008282111561077a57600080fd5b600082840390508091505092915050565b6000808284019050838110156107a057600080fd5b809150509291505056fea265627a7a72315820ffbd62c72ce740b439fe0931907eb88259f6729ca45312804ebcbb9b0831d5e364736f6c634300050c0032",
  "source": "pragma solidity ^0.5.12;\n\nimport \"node_modules/openzeppelin-solidity/contracts/math/SafeMath.sol\";\n\n// Contract executes the following:\n// Tracks the user balances stored in the contract\n// Allows for ETH deposits\n// Allows for ETH withdrawals\n// Generates a random number 1 or 0 with 50/50 probability\n// Executes a simulated coin flip, adding 100% of wager to balance if won, or deducting 100% of wager if lost\n// emits Deposit, Withdrawal and Flip events\n\ncontract CoinFlip {\n  using SafeMath for uint;\n  // Variables\n  // mappings\n  mapping (address => uint256) public balances;\n\n  // events\n  event Deposit(address user, uint256 amount, uint256 balance);\n  event Withdraw(address user, uint256 amount, uint256 balance);\n  event Flip(address user, uint256 bet, bool outcome);\n  // structs\n  \n\n  // functions\n  function deposit() public payable {        \n      balances[msg.sender] = balances[msg.sender].add(msg.value);\n      emit Deposit(msg.sender, msg.value, balances[msg.sender]);\n  }\n\n  function balanceOf(address _user) public view returns (uint256){\n      return balances[_user];\n  }\n\n  function withdraw(uint256 _amount) public payable {\n      require(balances[msg.sender] >= _amount);\n      balances[msg.sender] = balances[msg.sender].sub(_amount);\n      msg.sender.transfer(_amount);\n      emit Withdraw(msg.sender, _amount, balances[msg.sender]);\n  }\n  \n  function random() public view returns (uint) {\n    return now % 2;\n  }\n\n  function coinFlip(uint256 _amount) public {\n    require(_amount >= balances[msg.sender]);\n    uint256 randomNum = random();\n    bool win = false;\n    if(randomNum == 1) {\n      win = true;\n    } if(win) {\n      balances[msg.sender] = balances[msg.sender].add(_amount);\n    } else {\n      balances[msg.sender] = balances[msg.sender].sub(_amount);\n    }\n    emit Flip(msg.sender, _amount, win);\n  }\n}",
  "sourcePath": "/Users/jonathancole/Documents/GitHub/coin-toss-dapp/src/contracts/CoinFlip.sol",
  "compiler": {
    "name": "solc",
    "version": "0.5.12+commit.7709ece9.Emscripten.clang"
  },
  "schemaVersion": "3.0.16",
  "updatedAt": "2021-04-12T19:00:20.445Z",
  "devdoc": {
    "methods": {}
  },
  "userdoc": {
    "methods": {}
  }
}